:10000000C8C10000F7C10000F5C10000F3C1000045
:10001000F1C10000EFC10000EDC10000EBC1000024
:10002000E9C100000C9447130C9447130C94471338
:10003000E1C10000DFC10000DDC10000DBC1000044
:10004000D9C10000D7C10000D5C10000D3C1000054
:10005000D1C10000CFC10000CDC100000C941F2B06
:10006000C9C100000C94B52C0C948B2CC3C10000AA
:10007000C1C10000BFC10000BDC10000BBC1000084
:10008000B9C10000B7C10000B5C10000B3C1000094
:10009000B1C10000AFC10000ADC10000ABC10000A4
:1000A000A9C10000A7C10000A5C10000A3C10000B4
:1000B000A1C100009FC100009DC100009BC10000C4
:1000C00099C1000097C1000095C1000093C10000D4
:1000D00091C100008FC100008DC100008BC10000E4
:1000E00089C100001B11201125112A112F11341173
:1000F0003911A611B911CC11DF11F2110512181224
:10010000672A6A2A592A5D2A612AA12A6E2A722A36
:10011000782A7C2A802A862A8A2A8E2AA12A942A48
:10012000982A9C2A00002200250028002B002E007F
:100130003100340002010000050108010B0100003C
:100140002100240027002A002D0030003300010187
:100150000000040107010A01050505050705080857
:100160000808020202020A0A080804040404010141
:100170000101010101010303030303030303040756
:1001800007070C0C0C0C0C0C0C0C020202020606ED
:100190000606060606060B0B0B0B0B0B0B0B0102E0
:1001A0001020200808102040102040800201020189
:1001B0000804020101020408102040808040201041
:1001C000080402018004020180402010080402019A
:1001D0000804020101020408102040800102040802
:1001E000102040804154453000415426460041547F
:1001F0002B43504D533D22534D222C22534D222C44
:1002000022534D220041542B434E4D493D322C3058
:100210000041542B434950534855540041542B43FB
:100220005042533D22534D220041542B434D4746EB
:100230003D310041542B434D45453D300041542B49
:10024000434C49503D31004552524F523A20534998
:100250004D39303020646F65736E277420616E7382
:100260007765722E20436865636B20706F776572C7
:1002700020616E642073657269616C2070696E73B1
:1002800020696E2047534D2E6370700041542B49F6
:1002900050523D393630300D00313135323030007A
:1002A00041542B4950523D393630300D00353736E8
:1002B00030300041542B4950523D393630300D001A
:1002C00033383430300041542B4950523D393630A8
:1002D000300D0031393230300041542B4950523DFD
:1002E000393630300D00393630300041542B49500A
:1002F000523D393630300D00343830300041542B07
:100300004950523D393630300D00323430300041E2
:10031000542B4950523D393630300D003132303097
:1003200000547279696E6720746F20666F7263651E
:100330002074686520626175642D72617465207433
:100340006F20393630300A0000000A0B02090C0D0C
:100350000E08070304010000000000000000000078
:10036000000000000000000000000000000000008D
:10037000000000001211100000000000000000004A
:1003800000000000000000000000000000005D2FE1
:10039000532F11241FBECFEFD1E2DEBFCDBF00E04F
:1003A0000CBF17E0A0E0B2E0E2E5FAE600E00BBF28
:1003B00002C007900D92A83AB107D9F729E1A8EA3F
:1003C000B7E001C01D92A73FB207E1F711E0C8EC0A
:1003D000D1E000E006C021970109802FFE010E94B4
:1003E0009932C73CD10780E00807A9F70E94782E10
:1003F0000C94183505CE20E3FC0120833296862F1D
:1004000082958F7090E1899F601911246A3014F4ED
:10041000605D01C0695C6293682F8111F0CF08951F
:100420006F927F928F929F92AF92BF92CF92DF9204
:10043000EF92FF920F931F93CF93DF93EC015B0139
:100440004A013901F12C8FEF6E019CEDC90ED11CD0
:10045000FE1409F1FF2031F064EF71E080E090E0DC
:100460000E94DB2AB501C6010E94062EC6010E9429
:10047000F42DA301B401CE010E94F823813039F498
:10048000B801CE010E943123882311F003C08FEF01
:10049000F394DECF81E0DF91CF911F910F91FF9018
:1004A000EF90DF90CF90BF90AF909F908F907F9014
:1004B0006F9008950F931F93CF93DF938C01C0E04B
:1004C000D0E0F801EC0FFD1F6491662341F08FE14D
:1004D00098E10E94E728892B11F02196F2CF8FE155
:1004E00098E10E946C2C8C0F9D1FDF91CF911F9182
:1004F0000F910895EF92FF920F931F93CF93DF9385
:10050000EC0100E07C018CEDE80EF11C69E573E084
:10051000C7010E942223C7010E94F42D44E650E047
:1005200064EF71E0CE010E94F823813049F46BEC56
:1005300075E0CE010E94312381110DC010E001C091
:100540001FEF0F5F053041F064EF71E080E090E055
:100550000E94DB2ADBCF11E048E853E168EE73E04C
:10056000CE010E94F823812FDF91CF911F910F912F
:10057000FF90EF90089590E0FC01E256FE4F249129
:10058000FC01E85AFE4F8491882399F090E0880F8F
:10059000991FFC01E25CFE4FA591B491FC01EC5D5A
:1005A000FE4F859194918FB7F894EC91E22BEC93E8
:1005B0008FBF0895CF93DF93EA011092A51990930E
:1005C000A7198093A6197093A9196093A8190E947E
:1005D000132B6093AA197093AB198093AC19909365
:1005E000AD191092D51885ED98E19093A3198093D9
:1005F000A2191092A4198FE198E10E94342983ED89
:1006000098E10E9440238823D1F3813049F4BE0150
:1006100083ED98E10E943123811104C083E003C07F
:1006200084E001C082E0DF91CF910895CF93DF9302
:10063000E091D118F091D2183697C081D181C3557D
:10064000D64EBC01CE010E942223CE01DF91CF9174
:100650000C94F42DE091D118F091D21836972081A6
:100660003181BC01C9018355964E0C94222320E5AB
:10067000FC01208321E0218308957F928F929F9235
:10068000AF92BF92CF92DF92EF92FF920F931F93A0
:10069000CF93DF93CDB7DEB7A6970FB6F894DEBF42
:1006A0000FBECDBF8C01762E942E852E20E2B22E69
:1006B000CE0101967C01FC012B2D11922A95E9F7C0
:1006C0008DE393E09AA389A38FEF8BA38CA38DA3D3
:1006D0008EA3680183E4C80ED11C43E450E0BE0140
:1006E0006F5D7F4FC6010E94FC0F019609F4B5C0F3
:1006F00081E089838A8386E0A82EAB821C82F80180
:1007000064817581868197810E94A1326D837E8389
:100710008F83988789869A8680E890E09C878B876C
:100720004CE150E0B701C6010E943E0DF7012B2DB0
:1007300011922A95E9F7480188E0880E911CF4018E
:10074000D70101900D92AA94E1F740E150E0B70182
:10075000C6010E943E0DF7011192BA94E9F796E0A6
:10076000A92EB12C40E250E0B701C6010E943E0D17
:10077000F1E0AF1AB108B1F783E6898392E89A8372
:1007800093E59B838C8385E38D8381E08E837F82D9
:100790009DE3988797E099878A8786E0F401DE01D8
:1007A0001B9601900D928A95E1F78CE0898B8A8BDC
:1007B0006CE573E0CE0143960E94F734F80163853F
:1007C000CE01499618DEF8016485CE014B9613DE02
:1007D000F8016585CE014D960EDE4EE150E0B70181
:1007E000C6010E943E0DF3E07F121EC082E38983A2
:1007F00084E08A83F80196859B8397859C83908902
:100800009D8391899E8396E39F838887828D8987C4
:10081000838D8A87848D8B87858D8C874CE050E013
:10082000B701C6010E943E0D87E3898386E08A8373
:1008300091E09B8393E09C838D838FE08E838AE39A
:100840008F838BE388878FEF898749E050E0B7017A
:10085000C6010E943E0DC601D9D5A6960FB6F894E2
:10086000DEBF0FBECDBFDF91CF911F910F91FF90E3
:10087000EF90DF90CF90BF90AF909F908F907F9040
:100880000895CF93DF93FC0144815581608171818C
:100890008FE198E10E947528EC018FE198E10E94B8
:1008A0006C2C8C0F9D1FDF91CF910895AF92BF925A
:1008B000CF92DF92EF92FF920F931F93CF93DF932C
:1008C0007B018A01FB01448155814115510561F18C
:1008D000FC01248135812115310531F124173507BB
:1008E00018F10217130718F0890101501109FC01D2
:1008F000A080B180C501DFEFCFEF6501C00ED11E32
:10090000C816D906A0F0F701608171810E94FE34FB
:10091000009769F09C012A193B090217130710F090
:10092000D22FC32F0196ECCF8FEF9FEF02C08D2FF8
:100930009C2FDF91CF911F910F91FF90EF90DF904F
:10094000CF90BF90AF900895CF93DF93FC012481A7
:100950003581232B71F0FB01DC01CD91DC916081AD
:100960007181CE010E94FE34009719F08C1B9D0B03
:1009700002C08FEF9FEFDF91CF9108954F925F926A
:100980006F927F928F929F92AF92BF92CF92DF929F
:10099000EF92FF920F931F93CF93DF93CDB7DEB704
:1009A00063970FB6F894DEBF0FBECDBF7C015B012D
:1009B0003A01FB0120E080E090E06AE031913323CE
:1009C00009F140ED430F4A3080F4689FA001699F10
:1009D000500D1124CA01C097830F911D37FD9A95C0
:1009E0008F3F910559F350F313C03E3289F4233001
:1009F00079F0D301A20FB11D12968C932F5F80E086
:100A000090E0DCCF233021F4F301858381E021C025
:100A1000F701428153816481758180911B18909107
:100A20001C18A0911D18B0911E18481759076A0785
:100A30007B0709F47FC10E94132B8701085F1F4FBA
:100A40006F7077277C5FC8010E94E00F813019F03A
:100A500080E090E0C2C18DE393E09A838983F7013F
:100A600082819381A481B5818B839C83AD83BE8376
:100A700045E350E0BE016F5F7F4FC8010E94FC0F4D
:100A8000892B19F4C12CD12C51C10E94132BF701D1
:100A90007783668342E050E0B7016A5F7F4FC80109
:100AA000EDD781E090E09A83898342E050E0BE0177
:100AB0006F5F7F4FC801E2D780E091E09A8389831E
:100AC00042E050E0BE016F5F7F4FC801D7D71A8266
:100AD000198242E050E0BE016F5F7F4FC801CED760
:100AE00042E050E0BE016F5F7F4FC801C7D742E0D0
:100AF00050E0BE016F5F7F4FC801C0D74501F501CF
:100B000080818823F1F064015601F60181912F0163
:100B1000882321F08E3211F06201F6CFC818D9086F
:100B20001C141D0464F4CD8641E050E0BE01635FF7
:100B30007F4FC801A3D7A601B401C8019FD74201C6
:100B4000DECF1D8641E050E0BE01635F7F4FC801EC
:100B500095D7C12CDD24D394DA82C98242E050E0DB
:100B6000BE016F5F7F4FC80189D7DA82C98242E038
:100B700050E0BE016F5F7F4FC80180D7C80146D4E7
:100B8000892B09F47FCFE3E0AE2EB12C230122E0C4
:100B9000420E511C0E94132B3B014C01C8010E94C4
:100BA000A00E18161906A4F00E94132BDC01CB012D
:100BB00086199709A809B90989389341A105B10592
:100BC000D0F462E370E080E090E00E94DB2AE6CFA0
:100BD000F7014281538164817581808D918DA28D51
:100BE000B38D481759076A077B0749F4848D958DA3
:100BF000C59729F409C0CC24CA94DC2C8EC05EEFC2
:100C0000C52EDD24DA9489C0F70181A192A10C9749
:100C10000CF4DEC04CE050E0BE016F5F7F4FC801B6
:100C20000E945A0E8B819C819827892798279A8B3E
:100C3000898BF7014681578129813A8142175307F1
:100C400009F0B7C097FFB5C08F709270892B09F07B
:100C5000B5C06F807884762467247624611471048B
:100C600009F4B1C0C12CD12C8D819E819827892790
:100C70009827C816D90608F460C0812C912C41E051
:100C800050E0BE016D5E7F4FC8010E945A0E4B8935
:100C9000842F807C09F06DC0442331F050E060E087
:100CA00070E0C8010E945A0E8B898111E8CF42E0A2
:100CB00050E0BE01615F7F4FC801FCD742E050E0C9
:100CC000BE01635F7F4FC801F5D744E050E060E0AC
:100CD00070E0C801EFD742E050E0BE016F5E7F4F89
:100CE000C801E8D78F85988949895A89811591402B
:100CF00009F047C0CD84DE84DC24CD24DC2481E0EF
:100D0000C816D10409F03DC04115544009F04CC04B
:100D100044E050E0B201C801CDD721E0A21AB108E9
:100D200029F0FFEFCF16DF0609F434CFC80192D5C2
:100D3000C60153C08EEF9FEF50C041E050E0BE01AE
:100D4000635F7F4FC801B6D74D85442329F050E03B
:100D500060E070E0C801AED78D858111EECF44E030
:100D600050E060E070E0C801A5D7FFEFCF1ADF0ABE
:100D70007BCF41E050E060E070E0C8019BD71B8A68
:100D800093CF54274527542760E070E0C80192D7DD
:100D9000FFEF8F1A9F0A6814790409F070CF96EF5D
:100DA000C92EDD24DA94B9CF77EFC72EDD24DA948B
:100DB000B4CF4CEFC42EDD24DA94AFCF3BEFC32E7B
:100DC000DD24DA94AACF2AEFC22EDD24DA94A5CF4F
:100DD0008DEFC82EDD24DA94A0CF63960FB6F89479
:100DE000DEBF0FBECDBFDF91CF911F910F91FF905E
:100DF000EF90DF90CF90BF90AF909F908F907F90BB
:100E00006F905F904F900895FC018DE393E0918384
:100E1000808312821382148215821386128648EE12
:100E200053E060E070E0448755876687778722E467
:100E300032E031872087978B868B108E118E128E31
:100E4000138E88E080A308952F923F924F925F9275
:100E50006F927F928F929F92AF92BF92CF92DF92CA
:100E6000EF92FF920F931F93CF93DF93CDB7DEB72F
:100E7000E9970FB6F894DEBF0FBECDBF7C014A01E3
:100E80005B0119010E94132B2B013C0187010D5BB3
:100E90001F4FC80155D718161906A4F00E94132B2E
:100EA000DC01CB0184199509A609B70988169906B2
:100EB000AA06BB06D0F062E370E080E090E00E94FA
:100EC000DB2AE7CF42E250E0BE016F5F7F4FC801EF
:100ED000F1D68981823011F080E024C1F801848943
:100EE000958983349105C1F702C08FEF1BC16D81D5
:100EF0007E818F8198850E94A1322B013C01F101F6
:100F0000608371838283938346E050E0B701685F1A
:100F10007F4FCE014D960E94AD34892BE9F6F70143
:100F200080819181A281B381481659066A067B06A9
:100F300098F284819581A681B78184159505A605CF
:100F4000B70550F289899A89AB89BC8986879787CA
:100F5000A08BB18B4EEC50E060E070E0C801AAD6E7
:100F60001FA66701F2E2CF0ED11CC701869699AB8E
:100F700088ABF701BA96FBABEAAB4701FAE18F0EFB
:100F8000911C8D969DAB8CABF7017296FFABEEABCF
:100F9000CD9799AF88AF17019EE1290E311CF8015A
:100FA000818D928D181619060CF0BBC0C801A0D611
:100FB0008333910509F499C0A4F48130910551F16E
:100FC0001CF4892B61F3A8C08330910551F1069779
:100FD00009F0A2C0C8018CD65C0144E050E0B10128
:100FE00027C08A33910509F458C034F4853391053C
:100FF00059F0C69741F190C08B33910509F461C057
:101000008F3F910561F288C0C80172D6C80170D6C1
:101010008FA7C5CFC8016CD644E050E06EA97FA968
:101020000FC0C80165D65C0144E050E068AD79AD01
:10103000C80140D6A50155274450510960E070E031
:10104000C80138D6ACCFC80153D65C01B401CE017B
:1010500083960E947F2C8DA19EA1AFA1B8A5892B5C
:101060008A2B8B2BA1F0ECA9FDA9408051806280D6
:101070007380B401CE0189960E947F2C8BA59CA51C
:10108000ADA5BEA584159505A605B70521F444E0D8
:1010900050E0B401D5CFA50142C0C80129D644E033
:1010A00050E068A979A9C80105D6F70166A177A122
:1010B00080A591A50E94A13266A377A380A791A7DE
:1010C0006ECFC80115D644E050E06AA97BA9C801DB
:1010D000F1D5F70162A573A584A595A50E94A1325B
:1010E00062A773A784A795A75ACFC80101D644E089
:1010F00050E0B601C801DED5F70162A173A184A159
:1011000095A10E94A13262A373A384A395A366A7AD
:1011100077A780AB91AB43CFC801EAD5AC01552787
:101120008DCF8FA5E9960FB6F894DEBF0FBECDBF69
:10113000DF91CF911F910F91FF90EF90DF90CF90B3
:10114000BF90AF909F908F907F906F905F904F90E7
:101150003F902F900895AF92BF92CF92DF92EF927F
:10116000FF920F931F93CF93DF936C015B01EA0112
:1011700079012417350720F48D2FE901E42EF82E8C
:101180006CE873E0C6010E94B42BD50114960D9152
:101190001C911597C017D10748F5E016F10608F421
:1011A0008701D501ED91FC911197E00FF11FF080BF
:1011B00010826D917C916C0F7D1F6115710561F03E
:1011C000FB0101900020E9F73197AF01461B570B57
:1011D000C6010E947A2B03C0C6010E94692BF5014B
:1011E00080819181FC01E00FF11FF082C601DF9147
:1011F000CF911F910F91FF90EF90DF90CF90BF9014
:10120000AF90089580E090E0892B21F00E94DC28C7
:10121000811125C080E090E0892B41F080E090E0D2
:10122000892B21F00E94000081111CC080E090E019
:10123000892B41F080E090E0892B21F00E94000092
:10124000811113C080E090E0892BA1F080E090E054
:10125000892B81F00E94000081110AC008950E942C
:101260000000D8CF0E940000E1CF0E940000EACF2A
:101270000C94000008952091081890E0233311F495
:101280000C9601C04896982F990F990F990F80E0FE
:1012900008950895CF93DF931F92CDB7DEB769838A
:1012A000DC01ED91FC910280F381E02D41E050E002
:1012B000BE016F5F7F4F19950F90DF91CF91089519
:1012C000FC01818D928D0895FC019485FB0184853C
:1012D000981303C081E0983008F080E00895FF92F1
:1012E0000F931F93CF93DF931F921F92CDB7DEB75B
:1012F000F82E22E030E0AE014F5F5F4F66E270E013
:101300000E94C62009811A8110270127102722E098
:1013100030E0AE014F5F5F4F66E270E08F2D0E94BC
:10132000C62089819A819827892798270817190745
:1013300011F08C01ECCFC8010F900F90DF91CF918D
:101340001F910F91FF9008950F931F93CF93DF93F9
:101350001F921F92CDB7DEB7FC0124852830D8F448
:101360008C01CE01019683D989819A810E940A223B
:1013700022E030E0AE014F5F5F4F60E170E0F801C6
:1013800084850E94C62009811A8110270127102711
:101390000E94092202C000E010E0C8010F900F90E7
:1013A000DF91CF911F910F9108950F931F93CF93CA
:1013B000DF931F921F92CDB7DEB7FC012485283042
:1013C000D8F48C01CE01019652D989819A810E946C
:1013D0000A2222E030E0AE014F5F5F4F64E070E030
:1013E000F80184850E94C62009811A8110270127EF
:1013F00010270E94092202C000E010E0C8010F90EF
:101400000F90DF91CF911F910F9108951F93CF936C
:10141000DF931F921F92CDB7DEB7FC01108DCE0176
:10142000019625D989819A810E940A2260E270E0A2
:10143000812F0E94C02162E070E0812F0E94A321D1
:1014400084FD1BC062E070E0812F0E94A32183FF16
:101450000AC048E162E070E0812F0E9486210E946C
:10146000092280E013C00E940922CE010196FFD814
:1014700089819A810E940A22DECF40E162E070E019
:10148000812F0E9486210E94092281E090E00F9026
:101490000F90DF91CF911F910895AF92BF92CF929D
:1014A000DF92EF92FF920F931F93CF93DF93CDB70D
:1014B000DEB7AF970FB6F894DEBF0FBECDBF8C017D
:1014C0005B016A01CE0101969FDC8DE3E82E83E08B
:1014D000F82EFBA6EAA61CA61DA61EA61FA6809196
:1014E000151890911618A0911718B09118188EA37E
:1014F0009FA3A8A7B9A78B839C83AD83BE831886BF
:101500001F82AE01465D5F4FB501CE01019636DA0E
:1015100081309105B1F4D801ED91FC910488F589F1
:10152000E02DFDA2ECA28CA59DA5AEA5BFA58EA326
:101530009FA3A8A7B9A7A601BE016C5D7F4FC801F4
:101540001995AF960FB6F894DEBF0FBECDBFDF91F1
:10155000CF911F910F91FF90EF90DF90CF90BF90B0
:10156000AF900895FC01848DDF01A80FB11DA35A2F
:10157000BF4F2C91848D90E001968F739927848FB3
:10158000A689B7892C93A089B1898C9183708064D6
:101590008C93938D848D981306C00288F389E02D77
:1015A00080818F7D80830895EF92FF921F93CF9368
:1015B000DF931F921F92CDB7DEB7182F22E030E0E5
:1015C000AE014F5F5F4F60E270E00E94C620E9808D
:1015D000FA80FE24EF24FE2422E030E0AE014F5FCB
:1015E0005F4F60E270E0812F0E94C62089819A815E
:1015F000982789279827E816F90611F07C01ECCF87
:1016000087E0189FF0011124E054F84EF582E4823F
:10161000C7010F900F90DF91CF911F91FF90EF9036
:101620000895FF920F931F93CF93DF931F921F9202
:10163000CDB7DEB7F82ECE01019619D889819A81EF
:101640000E940A228F2DB0DF8C0163E070E08F2DA5
:101650000E94A321F82E0E94092287E1F81631F09A
:101660008CE1F81619F080E090E001C0C8010F90FD
:101670000F90DF91CF911F910F91FF9008951F93CD
:10168000CF93DF931F921F92CDB7DEB7182FCE01F5
:1016900001960E94370389819A810E940A22812F34
:1016A000EADD27E0129FF0011124E054F84E228178
:1016B0003381377041E050E0BE016F5F7F4F820F92
:1016C000931F0E9444200E94092289810F900F904D
:1016D000DF91CF911F910895FC01808D883038F4FF
:1016E000218D328D232B19F0CADF90E008958FEF02
:1016F0009FEF0895EF92FF920F931F93CF93DF9385
:101700001F921F92CDB7DEB7482F87E0489F900108
:101710001124F901E054F84E7F01808191810097F6
:10172000B1F4142FCE0101960E94370389819A816A
:101730000E940A22812FD3DD8C010E940922F70129
:1017400086819801281B3109C901318320830F90BC
:101750000F90DF91CF911F910F91FF90EF9008951F
:101760001F93CF93DF931F921F92CDB7DEB7182F31
:10177000CE0101960E94370389819A810E940A2234
:1017800068E070E0812F0E94C0210E9409220F9022
:101790000F90DF91CF911F9108951F93CF93DF9307
:1017A0001F921F92CDB7DEB7182FCE0101960E946F
:1017B000370389819A810E940A2260E170E0812FBB
:1017C0000E94C0210E9409220F900F90DF91CF91BB
:1017D0001F910895CF92DF92EF92FF920F931F9384
:1017E000CF93DF9300D000D0CDB7DEB78C016B0173
:1017F0007A01FC01808D883008F4CFDF8DE393E01F
:101800009A838983F60182819381A481B5818B8338
:101810009C83AD83BE83B701CE0101960E945629F9
:10182000F801808F883030F4F586E486128E118EB0
:1018300081E001C080E026960FB6F894DEBF0FBEAF
:10184000CDBFDF91CF911F910F91FF90EF90DF906F
:10185000CF900895CF93DF93FC01808D883020F4E2
:10186000EF019BDF88E0888FDF91CF9108951F9370
:10187000CF93DF931F921F92CDB7DEB7182FCE0103
:1018800001960E94370389819A810E940A2263E0AF
:1018900070E0812F0E94A321182F0E940922812F1E
:1018A0000F900F90DF91CF911F910895CF93DF9309
:1018B000EC018C858830C0F4DADF843181F0882334
:1018C00071F0883161F08C3161F4E881F981008434
:1018D000F185E02DCE01199521E0892B19F420E046
:1018E00001C021E0822F01C080E0DF91CF910895F7
:1018F000CF92DF92EF92FF92CF93DF93EC018C8532
:10190000883020F52DDF0E94132B6B017C018C8524
:10191000AEDF8823C9F061E070E080E090E00E94D3
:10192000DB2A0E94132BAB01BC014C195D096E0927
:101930007F098D859E85A0E0B0E0481759076A07AA
:101940007B0728F38C8529DF88E08C87DF91CF9196
:10195000FF90EF90DF90CF900895DA019091A80763
:10196000E92FF0E0FE2FEE27E60FF71F90E0982F0B
:101970008827A901BD018E0F9F1F0C94D7207F924D
:101980008F929F92AF92BF92CF92DF92EF92FF928F
:101990000F931F93CF93DF931F921F92CDB7DEB7A4
:1019A000782E8B014A01590122E030E0AE014F5FF1
:1019B0005F4F64E270E00E94C620E980FA80FE2456
:1019C000EF24FE24E00EF11E9701377040910818B5
:1019D000072D10E0C801433311F4089601C040966A
:1019E000982F8827990F990F990F820F931F4733CC
:1019F00019F4A501B40120C0A9014A0D5B1D4130B5
:101A00005840B8F360E078E06B01C21AD30AA6012F
:101A1000B4010E94D720A5014C195D09B4016C0DD9
:101A20007D1D80910818833331F5085F1F4F902F7B
:101A3000990F990F990F80E00E94D720EA0CFB1CA8
:101A4000F982EA8222E030E0AE014F5F5F4F64E24C
:101A500070E0872D82DF0F900F90DF91CF911F9163
:101A60000F91FF90EF90DF90CF90BF90AF909F903D
:101A70008F907F900895005F1F4FD9CF7F928F92F4
:101A80009F92AF92BF92CF92DF92EF92FF920F930D
:101A90001F93CF93DF931F921F92CDB7DEB77C01C8
:101AA0004B01742EC52EFC01A688B788D08CCE01C0
:101AB00001960E94370389819A810E940A228D2D06
:101AC00073DD072D1C2D8017910708F48C019801F8
:101AD000A401B5018D2D53DF0E940922F7018689EB
:101AE0009789800F911F978B868BC8010F900F905D
:101AF000DF91CF911F910F91FF90EF90DF90CF90EA
:101B0000BF90AF909F908F907F9008954F925F927B
:101B10007F928F929F92AF92BF92CF92DF92EF927D
:101B2000FF920F931F93CF93DF931F921F92CDB716
:101B3000DEB7782E6B014A01A82EB12C27E0829FD8
:101B4000C0011124AC014054584E7A01FA010081C1
:101B50001181CE0101960E94370389819A810E94EA
:101B60000A22081519054CF4872DB9DBF7012681E7
:101B70008C01021B11091183008301151105A9F4C1
:101B800063E070E0872D0E94A321843109F47DC0B9
:101B9000882309F47AC001E010E08C3111F400E0F0
:101BA00010E011950195110970C0801691060CF492
:101BB000840187E08A9DF0018B9DF00D1124E05493
:101BC000F84EE280F380C114D10449F12701F7E017
:101BD0005F22872D50DB840D951D20910818273337
:101BE00019F4A801B60119C09801240D351D213042
:101BF0003840B8F320E038E0490184189508A40182
:101C0000B6010E9444202601480C591C6801C818DE
:101C1000D908872D30DBA601B2010E944420E00ED6
:101C2000F11E87E08A9DF0018B9DF00D1124E05498
:101C3000F84EF382E28280819181801B910B918327
:101C400080832681A801420F511D4A3F510510F49F
:101C5000892BD1F487E08A9DF0018B9DF00D112432
:101C6000E054F84E1682F982EA8222E030E0AE01BA
:101C70004F5F5F4F68E270E0872D6FDE60E470E0D9
:101C8000872D0E94C02101C046830E940922C801FD
:101C90000F900F90DF91CF911F910F91FF90EF90D8
:101CA000DF90CF90BF90AF909F908F907F905F908C
:101CB0004F900895CF93DF93FC01218D328D211534
:101CC000310519F48FEF9FEF10C0EC014217530755
:101CD00008F0A901888D1ADF181619069CF7298DBE
:101CE0003A8D281B390B3A8F298FDF91CF910895B8
:101CF0000F931F93CF93DF931F92CDB7DEB7FC01F5
:101D0000218D328D232B59F08C0141E050E0BE0132
:101D10006F5F7F4F808DFADE181619061CF08FEF6B
:101D20009FEF08C0F801818D928D0197928F818F6E
:101D3000898190E00F90DF91CF911F910F910895CD
:101D40000F931F93CF93DF93CDB7DEB728970FB6CE
:101D5000F894DEBF0FBECDBF8C01D80159964D91CE
:101D60005C915A974115510551F0ED91FC91048C0D
:101D7000F58DE02D60E070E0C8011995EECFF80117
:101D8000808DB8DC892B49F148E050E0BE016F5FDF
:101D90007F4FD80158968C91B9DE18161906FCF4BD
:101DA000D801509684E0FE01319601900D928A95FB
:101DB000E1F78D8190E0982F88272E81820F911D69
:101DC000F801958B848B8F8190E0982F8827288548
:101DD000820F911D928F818F02C080E090E0289643
:101DE0000FB6F894DEBF0FBECDBFDF91CF911F912C
:101DF0000F910895CF93DF931F921F92CDB7DEB757
:101E000079836A8322E030E0AE014F5F5F4F60E18B
:101E100070E0A3DD0F900F90DF91CF910895CF93E5
:101E2000DF931F921F92CDB7DEB779836A8322E0DA
:101E300030E0AE014F5F5F4F64E070E08EDD0F90E9
:101E40000F90DF91CF9108958F929F92BF92CF9282
:101E5000DF92EF92FF920F931F93CF93DF93CDB753
:101E6000DEB72A970FB6F894DEBF0FBECDBF9091B4
:101E70000818992309F491C0933319F028E0B22E81
:101E800002C094E0B92E6B01082FCE0101960E948A
:101E9000370389819A810E940A229E012F5F3F4F5A
:101EA0007901490110E063E070E0812F0E94A321D5
:101EB000F40181934F018823C9F01F5FB112F3CF62
:101EC00010E0F70191917F019D3159F0983149F06F
:101ED0009A51923030F01F5FB112F3CF0E94092265
:101EE0005CC060E170E0812F0E94C021E12EF12CE6
:101EF00083EE93E00197F1F7402F60E070E0812FCF
:101F00000E9486214FEF62E070E0812F0E948621BF
:101F1000C114D10411F0B60113C080910A0290914E
:101F20000B0201968115F0EC9F0710F480E090EC15
:101F300090930B0280930A0260910A0270910B0247
:101F4000812F6DDF61E070E0812F0E94C02127E0CA
:101F50002E9DC0012F9D900D11249C012054384EC0
:101F60007901F9011182108222E030E0AE01475F71
:101F70005F4F68E270E0812F0E94C62089859A85B4
:101F8000982789279827F7019383828316821582E1
:101F900014820E940922812F01C088E02A960FB680
:101FA000F894DEBF0FBECDBFDF91CF911F910F918F
:101FB000FF90EF90DF90CF90BF909F908F9008950B
:101FC0000F931F93CF93DF93EC018B01888D8830A3
:101FD00008F4E3DBB80182E037DF888F883030F423
:101FE0001D870C871A8E198E81E001C080E0DF9179
:101FF000CF911F910F910895DF92EF92FF920F936F
:102000001F93CF93DF931F921F92CDB7DEB7FB01D3
:10201000DC0157961C921E9256972281211109C00D
:102020002381211106C02481211103C0258122238F
:10203000F9F041155105E1F07A018F01FC01D08CD6
:10204000CE0101960E94370389819A810E940A225B
:10205000A8014E5F5F4F24E030E06CE070E08D2D12
:102060007CDCB7018D2DC6DE0E94092281E001C013
:1020700080E090E00F900F90DF91CF911F910F9132
:10208000FF90EF90DF900895EF92FF920F931F93D0
:10209000CF93DF9300D01F92CDB7DEB78C017B01C9
:1020A000FB018485883050F08DE393E0F801918343
:1020B000808312821382148215821BC0CE01019686
:1020C0000E94370389819A810E940A2224E030E02D
:1020D000AE014F5F5F4F6CE070E0F70184850E94B6
:1020E000C6200E940922BE016F5F7F4FC8010E9477
:1020F0007F2CC8010F900F900F900F90DF91CF9120
:102100001F910F91FF90EF9008952F923F924F9261
:102110005F926F927F928F929F92AF92BF92CF9277
:10212000DF92EF92FF920F931F93CF93DF9300D034
:102130001F92CDB7DEB79C838B832A013B0188E0D9
:102140000E94BB0289E00E94BB02AB80BC808DEC88
:10215000A80EB11C81E0F5018083CB80DC80FCED12
:10216000CF0ED11CC301B2010E94F22CEB80FC8087
:1021700082E0E80EF11CEB81FC81E153FF4FFA8312
:10218000E983F182E0828B809C80FBEC8F0E911CB6
:1021900081E090E0F4019183808303E010E08B8183
:1021A0009C810E947A028F3FA1F461E088E00E9446
:1021B000382A60EB74E080E090E00E94DB2A60E067
:1021C00088E00E94382A60E177E280E090E00E9497
:1021D000DB2A48EE53E068EE73E08B819C810E941D
:1021E000F82301501109D9F68B819C810E947A0253
:1021F000813021F433243394212C03C0312C222448
:1022000023948B819C810E947A02811176C03110C7
:1022100067C100E010E0F8013197E730F10530F4D4
:102220008827EE58FF4F8F4F0C94993260EB74E083
:1022300080E090E022C060E679E080E090E01DC0A0
:1022400060EC72E180E090E018C060E875E280E048
:1022500090E013C060E07BE480E090E00EC060E0BE
:1022600076E980E090E009C060E071EE80E090E007
:1022700004C060E072EC81E090E00E94F22C64E621
:1022800070E080E090E00E94DB2A8B819C810E94BC
:102290007A02813031F563E673E0C6010E942223A1
:1022A000B301A201C6010E94622D65E976E0C60174
:1022B0000E94222364EF71E080E090E00E94DB2A1C
:1022C000C301B2010E94F22C64E670E080E090E06D
:1022D0000E94DB2A8B819C810E947A0233243394F2
:1022E00006C00F5F1F4F0830110509F094CFF501AC
:1022F0001082E981FA81F182E082222009F4F0C0A3
:102300003110EEC081E293E00E945A0200E010E03A
:10231000F8013197E730F10530F48827E758FF4F8F
:102320008F4F0C94993260EB74E080E090E00E9453
:10233000F22C68EE73E080E090E00E94DB2A8CE1F2
:1023400093E00E945A026FE073E084C060E679E097
:1023500080E090E00E94F22C68EE73E080E090E074
:102360000E94DB2A8AE093E00E945A026DEF72E03D
:1023700071C060EC72E180E090E00E94F22C68EEA7
:1023800073E080E090E00E94DB2A88EF92E00E94F8
:102390005A026BEE72E05EC060E875E280E090E0A9
:1023A0000E94F22C68EE73E080E090E00E94DB2A4D
:1023B00086EE92E00E945A0269ED72E04BC060E046
:1023C0007BE480E090E00E94F22C68EE73E080E015
:1023D00090E00E94DB2A83ED92E00E945A0266ECB4
:1023E00072E038C060E076E980E090E00E94F22C74
:1023F00068EE73E080E090E00E94DB2A80EC92E0DF
:102400000E945A0263EB72E025C060E071EE80E04A
:1024100090E00E94F22C68EE73E080E090E00E9471
:10242000DB2A8DEA92E00E945A0260EA72E012C052
:1024300060E072EC81E090E00E94F22C68EE73E0C4
:1024400080E090E00E94DB2A89E992E00E945A0233
:102450006CE872E0C6010E94062E68EE73E080E030
:1024600090E00E94DB2A60E875E280E090E00E9444
:10247000F22C68EE73E080E090E00E94DB2A8B8112
:102480009C810E947A0268EE73E080E090E00E94F6
:10249000DB2A48EE53E068EE73E08B819C810E945A
:1024A000F8230F5F1F4F0830110509F031CF87E483
:1024B00092E00E945A0261E088E00E94382A60EBB4
:1024C00074E080E090E00E94DB2A60E088E00E94F7
:1024D000382A60E177E280E090E00E94DB2ABEC00B
:1024E000F5011082332009F49EC042E350E062E31C
:1024F00070E08B819C810E94F823FF24F394F50106
:10250000F08285E0E82E0BEC15E022E330E048EEA7
:1025100053E069EE71E08B819C810E94100222E3FE
:1025200030E044EF51E064EE71E08B819C810E94C9
:102530001002F501F08222E330E044EF51E06DE358
:1025400072E08B819C810E94100222E330E044EF14
:1025500051E063E372E08B819C810E94100222E3D0
:1025600030E044EF51E069E272E08B819C810E948F
:102570001002F501F08292E0E92E22E330E048EE0D
:1025800053E065E072E08B819C810E9410022AE09A
:10259000E22E0BE613E028EE33E048EE53E06EEE59
:1025A00071E08B819C810E941002F501108235E060
:1025B000E32E0BEC15E022E330E048EE53E06CE153
:1025C00072E08B819C810E94100202E713E022E3FB
:1025D00030E044EF51E061E172E08B819C810E9428
:1025E0001002F501F0826AE773E0C6010E9422231F
:1025F00040E050E0BA01C6010E94622D65E976E034
:10260000C6010E94222364EF71E080E090E00E9406
:10261000DB2AF501108282E090E0F401918380834F
:1026200081E090E01DC060E072EC81E090E00E94EB
:10263000F22C68EE73E080E090E00E94DB2A63E613
:1026400073E0C6010E942223B301A201C6010E94C9
:10265000622D65E976E0C6010E94222380E090E0C9
:102660000F900F900F900F90DF91CF911F910F91CE
:10267000FF90EF90DF90CF90BF90AF909F908F90A2
:102680007F906F905F904F903F902F9008951F9292
:102690000F920FB60F9211240F900FBE0F901F9044
:1026A0001895982F80ED890F8A3020F081EA890FE4
:1026B0008C3110F481E008958FEB890F8A31D0F3CB
:1026C0009B32C1F381E09D3221F09E3219F080E00F
:1026D000089508950895DF92EF92FF920F931F934C
:1026E000CF93DF93CDB7DEB728970FB6F894DEBF50
:1026F0000FBECDBF8C017B01DC011696ED91FC91E4
:102700001797228133818481958193838283FA8311
:10271000E9831C821B823E832D83821B930B988747
:102720008F83C8010E941F2ED82EF8011286C8017F
:102730000E941F2ED8011A961C92D81641F18111C1
:1027400003C081E090E045C08C35E1F4C8010E94EF
:102750001F2E8823B1F3853719F0E2E8F3E006C0B5
:1027600084E090E036C0891729F03296908191116B
:10277000FACF06C08181811103C082E090E029C0B8
:10278000F8011286682FCE010196E0D5D0CF60E027
:10279000CE010196DBD58D819E81892B71F08B81D5
:1027A0009C81E981FA812F813885821B930B2281DC
:1027B0003381820F931F938382838D819E81D70102
:1027C0008D939C93892B19F483E090E002C080E004
:1027D00090E028960FB6F894DEBF0FBECDBFDF9114
:1027E000CF911F910F91FF90EF90DF9008950F937D
:1027F0001F93CF93DF93FC01248125FF1FC08B0122
:10280000C081D1812097D1F06E817F8101151105A2
:1028100019F06115710521F46017710731F411C0C9
:10282000C8010E94EE34892B61F08D81882331F03C
:10283000F8E08F02C00DD11D1124E4CF80E090E0BC
:1028400001C0CE01DF91CF911F910F9108954F925A
:102850005F926F927F928F929F92AF92BF92CF9230
:10286000DF92EF92FF920F931F93CF93DF93CDB739
:10287000DEB7CA5BD1400FB6F894DEBF0FBECDBF46
:102880008C0140E550E068E672E08CEB98E10E9434
:10289000641F7C01892B09F456C36DE873E08FE156
:1028A00098E10E946F2C61EA73E08FE198E10E9449
:1028B0006F2C66EA73E08CEB98E10E94C82B6CEAFF
:1028C00073E08CEB98E10E94C82B63EC73E08CEB17
:1028D00098E10E946F2C6BEA75E08CEB98E10E9406
:1028E000C82B68E672E08CEB98E10E946F2C6DECCF
:1028F00073E08CEB98E10E946F2C67EE73E08FE140
:1029000098E10E946F2C62EF73E08CEB98E10E94DB
:10291000C82B68E074E08CEB98E10E946F2C69E8AA
:1029200074E08CEB98E10E946F2C69EB74E08CEB07
:1029300098E10E94C82B4091CF185091D01860E0C8
:1029400070E02AE08CEB98E10E94DD2B8CEB98E1A3
:102950000E946C2C8CEB98E10E946C2C4091CF185B
:102960005091D0186091CB187091CC188CEB98E1F5
:102970000E940D226AEC74E08FE198E10E946F2CB6
:1029800082E3E2EBF7E0DF011D928A95E9F768E860
:1029900073E180E090E00E94DB2A02EB17E08CEB11
:1029A00098E10E94560C811106C08CEB98E10E94C0
:1029B0005B1F892B49F08CEB98E10E941E1F8F3F13
:1029C000FFEF9F0709F01DC462EB77E0CE018B5447
:1029D0009E4F0E94B42B68ED74E0CE0101967C01FD
:1029E0000E94B42BB701CE018B549E4F0E94A404C9
:1029F0008C0168ED74E0CE0182569E4F0E94B42B8C
:102A0000BE0162567E4FCE018B549E4F0E94A4049D
:102A10009801245F3F4FAC01475F5F4FBE016B548D
:102A20007E4FCE0181559E4F0E94AB08CE0182564B
:102A30009E4F0E94B02BC7010E94B02BCE01815542
:102A40009E4F0E944104CD54DE4F88819981C35B23
:102A5000D140892B09F4D1C162EE74E0C155DE4F3B
:102A600088819981CF5AD1400E94EE34892B09F098
:102A7000C4C164EE74E0CE0182569E4F0E94B42B16
:102A8000C754DE4F48815981C95BD140CE55DE4FD6
:102A900088819981C25AD140481B590BBE016256A8
:102AA0007E4FCE018B549E4F0E9456048C0166EEE1
:102AB00074E0CE0187559E4F0E94B42BC754DE4F61
:102AC00048815981C95BD140C355DE4F88819981C6
:102AD000CD5AD140481B590BBE0167557E4FCE01E0
:102AE0008B549E4F0E945604AC014E5F5F4F98017D
:102AF000BE016B547E4FC7010E94AB08CB54DE4F22
:102B000088819981C55BD1400097E9F069817A811C
:102B100061157105B1F0C954DE4F48815981C75B19
:102B2000D1402D813E814217530758F00E94F7345F
:102B30008D819E81C754DE4F99838883C95BD140C4
:102B40001EC00E94403389819A81CB54DE4F998305
:102B50008883C55BD1408B819C81C954DE4F9983AA
:102B60008883C75BD1408D819E81C754DE4F998396
:102B70008883C95BD1401A8219821C821B821E8203
:102B80001D82C7010E94B02BCE0187559E4F0E9427
:102B9000B02BCE0182569E4F0E94B02B6CE873E0A2
:102BA000C7010E94B42B64EC75E0CE0182569E4FA3
:102BB0000E94B42BC754DE4F68807980C95BD14036
:102BC0006114710409F4B8C0CE55DE4F8880998035
:102BD000C25AD1408114910409F4AEC0CD80DE8088
:102BE000C818D908CB54DE4F08811981C55BD14084
:102BF000C114D104C1F4C256DE4F68817981CE5927
:102C0000D140C8010E94FE348C01009709F494C0A1
:102C100069817A814D815E810E94BA348D819E8165
:102C2000080F191FE8CFD7FE02C0580109C0C256CD
:102C3000DE4F48805980CE59D1405301C8013DC074
:102C4000C256DE4F68817981CE59D140C5010E94BC
:102C5000FE343C01009761F14C018A189B08A401E5
:102C6000B501C8010E94BA34080D191D69817A8125
:102C70004D815E81C8010E94BA348D819E81080F0A
:102C8000191FCE55DE4FA880B980C25AD140A60C7C
:102C9000B71CC754DE4F88819981C95BD1408C0D28
:102CA0009D1DC754DE4F99838883C95BD140C8CF2F
:102CB000B501C8010E94F7343FC0B2010E94FE3442
:102CC000009729F0880D991DAC0CBD1CF6CF6A1435
:102CD0007B0491F1C954DE4F88819981C75BD14053
:102CE0008A159B05A0F4B5016F5F7F4FC8010E9454
:102CF000C933009709F1CB54DE4F99838883C55BB4
:102D0000D140C954DE4FB982A882C75BD140C754B5
:102D1000DE4F48815981C95BD1404150510957FD6F
:102D20000BC0BE0162567E4FCE018B549E4F0E9457
:102D300056048C0197FF77C2CE0182569E4F0E94A7
:102D4000B02BC7010E94B02BCB54DE4FA880B980B6
:102D5000C55BD140A114B10409F45AC0C754DE4F79
:102D600008811981C95BD1400115110509F450C0D2
:102D7000650146019FEF891A990AD6018C91082EA8
:102D8000000C990B0E943031892B11F06401F1CFB6
:102D9000015011090A0D1B1DF8018081082E000C3D
:102DA000990B0E943031892B31F00C151D0518F05C
:102DB00001501109F1CFA8014F5F5F4F4C195D0918
:102DC000C754DE4F59834883C95BD140AC14BD045E
:102DD00020F4B601C5010E94BA34CB54DE4FE8811D
:102DE000F981C55BD140C754DE4F88819981C95BA9
:102DF000D140E80FF91F10820BC0CE0181559E4FC4
:102E00000E94410469EE74E08FE198E10E946F2C0A
:102E1000CE010E969A8389839C838B838EE991E001
:102E20008C0F9D1F9E838D8398878F838D858078DF
:102E30008D87C754DE4F28813981C95BD140CB547F
:102E4000DE4F88819981C55BD140009711F48CE8F1
:102E500093E0C256DE4FF982E882CE59D140C05687
:102E6000DE4F99838883C05AD140820F931FCE557D
:102E7000DE4F99838883C25AD140CC55DE4FF98208
:102E8000E882C45AD1408AE0CA55DE4F8883C65AC8
:102E9000D140C855DE4F1882C85AD140BE01675F85
:102EA0007F4FCE0182569E4F0E941F246CEA73E032
:102EB000CB010E94DB34892B89F562E175E0CE01FC
:102EC000099695DCFC01892B41F094819F77935002
:102ED000923018F40081118102C000E010E01093DC
:102EE0000302009302026FE175E0CE0109967FDCD8
:102EF000FC01892B41F094819F779350923018F414
:102F00008081918102C080E090E0909301028093E3
:102F10000002B8018FE198E10E946F2C0E94132BF0
:102F20006093AC077093AD078093AE079093AF07A3
:102F3000CE0181559E4F0E94B02BCE018B549E4FE7
:102F40000E94B02BBEC16AE275E08FE198E10E9459
:102F50006F2C8CEB98E10E94780C8091AB0781116B
:102F6000B0C18091AA078111ACC13CD26BE375E07E
:102F70008FE198E10E946F2C8CE495E00E9416038B
:102F800065E575E08FE198E10E946F2C8AE695E097
:102F90000E94160398E10B3C190791F06091CB1841
:102FA0007091CC186115710541F04091CF18509186
:102FB000D018C8010E947A2B03C0C8010E94692B57
:102FC000D801AD90BC908AE1C256DE4F8883CE59BD
:102FD000D140C156DE4F1882CF59D140C12CD12CDF
:102FE00081E795E00E942A0388E692E00E942A0386
:102FF00085E895E00E942A03E091D118F091D2185B
:103000003697008111810355164E40E550E060E08F
:1030100070E0C8010E94622DC8010E94F42D4BECA3
:1030200055E068EC70E088EE93E00E94DA0283508D
:10303000823008F43DC168E875E083ED98E10E94B4
:10304000312381110CC04BEC55E068EC70E088E94D
:103050009AE30E94DA028350823008F429C168EBB7
:103060007BE080E090E00E94DB2A83E995E00E940B
:1030700016034EE955E068EC70E088E893E10E94A1
:10308000DA028350823008F413C160EA7FE080E006
:1030900090E00E94DB2A86EA93E00E942A038CEAF1
:1030A00093E00E942A0380EA95E00E942A0388E6C2
:1030B00092E00E942A0383EC95E00E942A0382EBAF
:1030C00095E00E942A0380E094E00E942A0388E0B1
:1030D00094E00E942A0383EC95E00E942A038DEC81
:1030E00093E00E942A0383EC95E00E942A0389E87A
:1030F00094E00E942A0383EC95E00E942A0389EB66
:1031000094E00E942A03F50101900020E9F7CF0125
:1031100001974AE0BE016F5F7F4F8A199B090E94A9
:103120000531CE0101960E942A0381EC95E00E94B0
:103130002A03C5010E942A0381EC95E00E942A031C
:10314000CE0182569E4F0E942A0346EC55E06AE06B
:1031500070E080E197E20E94DA028350823070F0E2
:1031600062E370E080E090E00E94DB2A40EA5FE0EA
:1031700062EB77E081ED98E12AD77C01F092B1070C
:10318000E092B0076EEC75E08FE198E10E946F2C41
:10319000C090B007D090B1070D2C000CEE08FF08CE
:1031A000F7FE0EC06DE28FE198E10E94E728442708
:1031B0005527BA014C195D096E097F092AE003C041
:1031C0002AE0B701A6018FE198E10E94DD2B8FE193
:1031D00098E10E946C2C8091B0079091B107892BE7
:1031E00019F46EEE75E008C063E076E08FE198E1D7
:1031F0000E946F2C62EB77E08FE198E10E946F2CC8
:1032000060C0F80181938F01F7E103351F0721F4B6
:103210008CEB98E10E94780C61E070E080E090E037
:103220000E94DB2ABCCBCE55DE4F28813981C25AA1
:10323000D140280F391FCB54DE4F88819981C55B5F
:10324000D140820F931FC754DE4F48815981C95B1B
:10325000D140421B530BBC018C0D9D1D0E94C334F9
:10326000C754DE4F88819981C95BD1408C0D9D1D6B
:10327000C754DE4F99838883C95BD140CB54DE4F5E
:1032800028813981C55BD140F901E80FF91F10820F
:10329000CB54DE4F88819981C55BD14069817A81A9
:1032A0004D815E81800F911F0E94BA34A80135CDF7
:1032B0002FEFC21AD20A83E0C816D10409F090CECB
:1032C0005DCFC654DE4F0FB6F894DEBF0FBECDBF44
:1032D000DF91CF911F910F91FF90EF90DF90CF90F2
:1032E000BF90AF909F908F907F906F905F904F9026
:1032F00008950895FC01768765870895DC01ED91B6
:10330000FC91068CF78DE02D199591E089270895A1
:10331000862F089581E08627089521E0FC018485A9
:10332000883008F020E0822F089580E090E0089532
:10333000FC0180819181892B21F460E070E0CB0158
:10334000089569E779E180E090E00895FC018481C7
:103350009581009799F02281338146815781241706
:10336000350718F0158214820895A9014F5F5F4F49
:1033700053834283FC01E20FF31F60830895CF93D0
:10338000DF93DC01EB01EC81FD818A819B81089652
:10339000E817F90718F480E090E021C03897FD8322
:1033A000EC833097C1F31296CD91DC91139720975F
:1033B00051F0CF018C1B9D0B23E0959587952A95A5
:1033C000E1F78D8303C01196FC93EE931396FC9363
:1033D000EE9312971582148217821682CF01DF9125
:1033E000CF9108952F923F924F925F926F927F926A
:1033F0008F929F92AF92BF92CF92DF92EF92FF9205
:103400000F931F93CF93DF93CDB7DEB72C970FB6F3
:10341000F894DEBF0FBECDBF60E875E280E090E0BB
:103420000E94F22C65E176E08FE198E10E946F2C1A
:103430008091B41781112AC010929C1710929B178B
:1034400088EE93E0A0E0B0E080939D1790939E17E4
:10345000A0939F17B093A01782E492E090939A17DD
:10346000809399178DE393E09093A8178093A71703
:103470001092A9171092AA171092AB171092AC17BE
:1034800088E08093B11781E08093B41786E597E1D7
:103490009093551780935417809153178111DEC074
:1034A00060E372E080E090E00E94DB2A1FB7F894AE
:1034B00080915217811124C0EDE8F1E08491E3ED91
:1034C000F1E09491E82FF0E0EE0FFF1FE25CFE4F79
:1034D000A591B491EC91E92321F461E085E30E9488
:1034E000382A85E30E94BB028CB580618CBD8CB507
:1034F00080648CBD84E30E94BB0283E30E94BB0214
:10350000809152178F5F809352171FBFE2E6F1E060
:10351000E491F0E0EE0FFF1FEC5DFE4F859194917A
:103520009093BF178093BE17E8EAF1E0E491E0932F
:10353000BD178AE00E94BB029DD5CE0101960E9474
:10354000370389819A8166D784E3809308184AD724
:103550008823D1F088E034D721D78830A9F480E1DE
:103560002FD71CD7803181F480E02AD717D781115B
:103570000BC041E050E0BE016F5F7F4F8FE190E0F4
:1035800083D58981833041F187E3809308182AD756
:103590008823A1F188E014D701D7883079F580E13C
:1035A0000FD7FCD6182F803149F580E009D7F6D621
:1035B000811124C041E050E0BE016F5F7F4F89E37D
:1035C00090E062D589818430C9F41093A80721D78F
:1035D00081E08093531742C080E48093A80710E0F5
:1035E00042E06EE170E0812F91D642E06FE170E041
:1035F000812F8CD61F5F183099F7E9CF83E3809332
:103600000818F0D6882331F180E1DAD6C7D68031A8
:1036100009F582E1D5D6C2D68231E1F480E0D0D678
:10362000BDD6811117C084E08093A80715E51A87DD
:1036300041E050E0BE01665F7F4F8BE190E0B7D57F
:10364000198741E050E0BE01675F7F4F8AE190E05B
:10365000AED5BDCF10920818DCD650C2CE0101966F
:103660000E94370389819A81D5D646E050E064E014
:1036700072E089E090E09BD58DE393E09A838983A3
:103680001B821C821D821E8244E050E0BE016D5FE1
:103690007F4F8FE090E08BD5BCD6009154171091EE
:1036A0005517F80112A213A214A215A216A217A26E
:1036B00010A611A612A613A614A615A680E69AEEC9
:1036C000A0E0B0E086AB97ABA0AFB1AF80EA9FE0DF
:1036D000A0E0B0E082AF93AFA4AFB5AF3E9684E177
:1036E000DF011D928A95E9F786E0E4E0F2E0D80177
:1036F000189601900D928A95E1F74801B2E48B0E7D
:10370000911CF40110820E9494302FEC37E040E0CD
:1037100050E00E943C32DC01CB010196A11DB11D9D
:10372000F80184839583A683B78380839183A283E2
:10373000B3835801F3E4AF0EB11CC5010E942A0CFB
:1037400064E470E0C5010E94E00F882309F4D6C14B
:103750000E94132B2B013C011C861B8648EEC42EB5
:1037600043E0D42EE12CF12C52E0252ED4018C9193
:10377000833009F4FFC081111FC0F8018481958155
:10378000A681B7810196A11DB11D84839583A6836F
:10379000B7830E94132B6419750986099709A7013D
:1037A00096010E946832A90161E0C8010E943D03B0
:1037B00081E0D4018C93C6C08430F1F4F801848197
:1037C0009581A681B7810196A11DB11D8483958342
:1037D000A683B7830E94132B64197509860997097C
:1037E000A70196010E946832A90163E0C8010E9406
:1037F0003D03D4012C92A6C0813051F5F80142ADB1
:1038000053AD64AD75AD9E012F5F3F4FC8010E945F
:103810002407382EF2E08F1390C089819A81AB8102
:10382000BC81F80184839583A683B7830E94132B00
:103830006419750986099709A70196010E946832E3
:10384000A90163E0C8010E943D03D4013C927AC003
:10385000823009F077C0F80142AD53AD64AD75AD6B
:103860009E012F5F3F4FC8010E942407382EF5E0CC
:103870008F135DC0E3E0D401EC93F80182A193A122
:10388000A4A1B5A1892B8A2B8B2B41F484E893E06A
:10389000A0E0B0E082A393A3A4A3B5A3F80186A1FE
:1038A00097A1A0A5B1A5892B8A2B8B2B61F482A1AE
:1038B00093A1A4A1B5A1B695A7959795879586A341
:1038C00097A3A0A7B1A7F80182A593A5A4A5B5A524
:1038D000892B8A2B8B2BA9F482A193A1A4A1B5A13A
:1038E000AC01BD0123E076956795579547952A95DC
:1038F000D1F7841B950BA60BB70B82A793A7A4A7A0
:10390000B5A7F80186A197A1A0A5B1A586A797A7FD
:10391000A0ABB1AB82A593A5A4A5B5A582AB93AB93
:10392000A4ABB5AB81E090E09C878B870BC096E0A1
:10393000891303C0D4011C9205C0BFEF3B1202C023
:10394000F40110828B859C85019709F40FCF0E94AA
:10395000132BDC01CB0184199509A609B709F801DD
:1039600026A937A940AD51AD281739074A075B078B
:1039700008F0FCCEC5010E942A0CF80184819581D3
:10398000A681B7810196A11DB11D84839583A6836D
:10399000B7830E94132BF801FE96608371838283A4
:1039A00093838B859C85019709F062C0CE010196B7
:1039B0000E94370389819A812DD5609154177091A7
:1039C0005517625F7F4FCE0101960E947F2C44E025
:1039D00050E0BE016D5F7F4F8FE090E0E8D36091D3
:1039E0005417709155176A5E7F4FCE0101960E9461
:1039F0007F2C44E050E0BE016D5F7F4F81E090E09E
:103A0000D6D360915417709155176E5E7F4FCE01DB
:103A100001960E947F2C44E050E0BE016D5F7F4F15
:103A200085E090E0C4D3F5D4609154177091551798
:103A3000625E7F4FCE0101960E947F2C8B819C811C
:103A4000AD81BE818093151890931618A093171816
:103A5000B09318180E94B62A7F7380910A02909141
:103A60000B026827792770930B0260930A0205C046
:103A7000AB85BC85AB2B09F441C081E08093AA07DC
:103A80006AEA76E08FE198E10E94C82B8DE393E02B
:103A90009A8389831B821C821D821E82CE01079617
:103AA0000E9437038F819885B5D444E050E0BE0171
:103AB0006D5F7F4F8FE090E0E7D2ABD46FE178E1AC
:103AC000CE0101960E94242C8FE198E10E946C2C7B
:103AD0008091BC17882309F4EFC061E088E00E9460
:103AE000382A60EB74E080E090E00E94DB2A60E01E
:103AF00088E00E94382A1092BC17DEC066EE76E09D
:103B00008FE198E10E946F2C40E855E260E070E0A0
:103B100083ED98E10E948510892B09F4B1C065E31B
:103B200076E08FE198E10E946F2C81E08093AB07F3
:103B300068E873E180E090E00E94DB2A42E350E015
:103B400062E370E083ED98E153D68CE495E00E9447
:103B5000160349E456E062E370E088E893E10E94CE
:103B6000DA028230F9F08FE496E00E94160349E40D
:103B700056E062E370E088E893E10E94DA0260EDCB
:103B800077E080E090E00E94DB2A8BE596E00E94DF
:103B9000160349E456E062E370E088E893E10E948E
:103BA000DA0275C08AE696E00E94160342E753E007
:103BB00062E370E084EF91E00E94DA028350823089
:103BC00008F472C068EE73E080E090E00E94DB2AA7
:103BD00085E796E00E942A038FE796E00E942A0379
:103BE00081E895E00E942A038FE896E00E942A036C
:103BF00081E895E00E942A038FE896E00E942A035C
:103C000084E996E00E942A034BEC55E062E370E001
:103C100084EF91E00E94DA028350823008F444C0BD
:103C200068E873E180E090E00E94DB2A87E996E093
:103C30000E9416034BEC55E062E370E080E197E2EE
:103C40000E94DA028350823078F168EE73E080E0FF
:103C500090E00E94DB2A8CE495E00E94160349E480
:103C600056E062E370E088E893E10E94DA02823075
:103C7000D9F083E090E090939F1980939E1907C03C
:103C800060EA76E08FE198E10E946F2C15C063EC4A
:103C900076E08FE198E10E946F2C68EE73E080E09F
:103CA00090E00E94DB2A08C060ED76E08FE198E1A9
:103CB0000E946F2C97DBF1CF2C960FB6F894DEBFE5
:103CC0000FBECDBFDF91CF911F910F91FF90EF906D
:103CD000DF90CF90BF90AF909F908F907F906F902C
:103CE0005F904F903F902F900895CF93DF931F9256
:103CF000CDB7DEB76983DC01ED91FC910280F381E1
:103D0000E02D41E050E0BE016F5F7F4F19950F90AD
:103D1000DF91CF910895FC01848595850895FC017C
:103D20008489958908952DE333E0FC013183208354
:103D3000FB014089518962897389FC014283538365
:103D4000648375830895DC01ED91FC91048CF58DFD
:103D5000E02D199480E00895FC0120812EBD9B0187
:103D60002150310941F051810DB407FEFDCF4EB510
:103D70005EBD4193F5CF61507109FC01E60FF71F5D
:103D80000DB407FEFDCF8EB580830895E091BE1778
:103D9000F091BF1790818091BD1780958923808312
:103DA00008958EBD00000DB407FEFDCF8EB50895B9
:103DB000CF92DF92EF92FF920F931F93CF93DF93F7
:103DC0006C01EB017B01E40EF51E00E010E0CE1566
:103DD000DF0561F06991D601ED91FC910280F381DC
:103DE000E02DC6011995080F191FF1CFC801DF9109
:103DF000CF911F910F91FF90EF90DF90CF9008959A
:103E0000FC018485883010F40C94110B80E090E064
:103E10000895CF93DF93EC018C85883060F40E9485
:103E2000370C873111F08C3131F48C850E94110BE5
:103E30008115984088F3DF91CF910895CF93DF9358
:103E40001F92CDB7DEB741E050E0BE016F5F7F4FFC
:103E5000FC0184850E94860D181619061CF48981C0
:103E600090E002C08FEF9FEF0F90DF91CF91089508
:103E7000FC018485883010F40C94860D80E090E07D
:103E80000895CF93DF93FC012485283018F08FEF3D
:103E90009FEF0EC0EC010190F081E02D0084F185D0
:103EA000E02D1995892B99F38C850E943F0B90E0AA
:103EB000DF91CF910895FC018485883010F40C9433
:103EC0007A0B80E090E00895CF92DF92EF92FF921C
:103ED0000F931F93CF93DF93CDB7DEB7AF970FB696
:103EE000F894DEBF0FBECDBF8C016B017A01CE010D
:103EF00001960E9404078DE393E09BA78AA71CA666
:103F00001DA61EA61FA6D8011C968C91883060F4B1
:103F10000E94370C882321F0F80184850E94B00BA1
:103F200088E0D8011C968C938091151890911618F2
:103F3000A0911718B09118188EA39FA3A8A7B9A78E
:103F40008B839C83AD83BE8318861F82AE01465D42
:103F50005F4FB601CE0101960E94BE040097C1F0EA
:103F6000D801ED91FC910684F785E02D8DE393E077
:103F70009DA38CA38CA59DA5AEA5BFA58EA39FA335
:103F8000A8A7B9A7A701BE016C5D7F4FC80119950D
:103F9000AF960FB6F894DEBF0FBECDBFDF91CF91C5
:103FA0001F910F91FF90EF90DF90CF9008958FE1D8
:103FB00098E10C94AE288FE198E10C94AE288FE143
:103FC00098E10C94D0288FE198E10C94D028CF92FE
:103FD000DF92EF92FF920F931F93CF93DF937B01BA
:103FE000EA0181ED98E1EFDF181619063CF400E0D4
:103FF00010E06E0181E0C81AD1081CC064E670E0D0
:1040000080E090E00E94DB2AECCF0C151D05C4F483
:104010008FE198E10E94AE28181634F4F701E00F02
:10402000F11F80830F5F1F4F61E070E080E090E040
:104030000E94DB2A81ED98E1C6DF181619062CF3E1
:10404000CE0DDF1D21971882C801DF91CF911F91FE
:104050000F91FF90EF90DF90CF9008958FE198E15E
:104060000C9434298FE198E10C94E728CB01BA0134
:104070000C94F22CE091BE17F091BF1790818091C3
:10408000BD17892B80830895AF92BF92CF92DF92A4
:10409000EF92FF920F931F93CF93DF9300D01F9265
:1040A000CDB7DEB78C016B017A018091081883339C
:1040B000C1F45B016801C40ED51E0C151D0509F481
:1040C00055C064DE8FE06DDE812F6BDE802F69DEF0
:1040D0000F5F1F4F80E065DEF50181935F01CADF4E
:1040E000ECCF8433D1F452DE19830A838F2D8F777E
:1040F0008B83EC8264E070E0CE0101962DDEA70197
:1041000060E070E0C6010E94D434E114F10419F0BB
:10411000B701C60121DEAEDF29C038DE0F3F110531
:1041200009F020F419820A831B821DC017FD0BC001
:1041300019820A8333E0169507953A95E1F7007ED8
:1041400008600B8310C0C80126E0969587952A95D4
:10415000E1F719830A83807E0115104C10F4806109
:1041600001C088618B8363E070E0C6CFC7010F9008
:104170000F900F900F90DF91CF911F910F91FF90B3
:10418000EF90DF90CF90BF90AF900895DA019091BB
:10419000A807E92FF0E0FE2FEE27E60FF71F90E0CB
:1041A000982F8827A901BD018E0F9F1F6DCFAF9259
:1041B000BF92CF92DF92EF92FF920F931F93CF9314
:1041C000DF93CDB7DEB728970FB6F894DEBF0FBEEA
:1041D000CDBF8C017B016A01809108188333B1F453
:1041E0005801A40EB51E0A151B0509F47DC0CEDDCD
:1041F00080EFD7DD812FD5DD802FD3DD0F5F1F4FFF
:10420000F70181917F01CDDD35DFEDCF8433F9F406
:10421000BDDD19830A838D2D80688B83CC8264E099
:1042200070E0CE01019698DD87010C0D1D1DE01692
:10423000F10659F0F70181917F01B3DDF8CFB601A6
:104240006D5F7F4FCE01019687DD14DF4DC09EDD8F
:104250000F3F110509F020F419820A8384E01CC085
:1042600017FD0BC019820A8333E0169507953A951E
:10427000E1F7007E0C600B8310C0C80126E0969524
:1042800087952A95E1F719830A83807E0115104CE2
:1042900010F4846101C08C618B8326E0C216D104C6
:1042A00098F420E0822F90E08C159D0540F6E4E024
:1042B000F0E0EC0FFD1FE80FF91FD701A80FB91FA1
:1042C0008C9180832F5FEECF63E070E0CE0101968A
:1042D00043DD87010C0D1D1DF70181917F0161DD1B
:1042E000E016F106C9F7B1CFC60128960FB6F894CB
:1042F000DEBF0FBECDBFDF91CF911F910F91FF9019
:10430000EF90DF90CF90BF90AF900895CF93DF9361
:104310001F92CDB7DEB79091A807292F30E0322F3A
:104320002227260F371F90E0982F8827498341E0E6
:1043300050E0BE016F5F7F4F820F931F38DF0F90F9
:10434000DF91CF910895CF93DF931F92CDB7DEB762
:104350009091A807292F30E0322F2227260F371FF0
:1043600090E0982F882741E050E0BE016F5F7F4FBB
:10437000820F931F89DE89810F90DF91CF9108957D
:10438000CF93C82F462F61E070E0C0DF61E070E09E
:104390008C2FD9DF8111FACFCF910895CF93DF937E
:1043A0001F92CDB7DEB741E050E0BE016F5F7F4F97
:1043B00080E090E069DE89810F90DF91CF910895D0
:1043C000CF93DF931F92CDB7DEB7898341E050E0F2
:1043D000BE016F5F7F4F80E090E0E9DE0F90DF91DC
:1043E000CF910895CF93DF9380E8EADFC4E1D0E076
:1043F000D5DF882351F061E070E080E090E00E941A
:10440000DB2A2197A9F780E001C081E0DF91CF91FD
:10441000089508958CBD9DBD08956F927F928F92EF
:104420009F92AF92BF92CF92DF92EF92FF921F9333
:10443000CF93DF931F921F92CDB7DEB7FC01148597
:10444000183008F059C06A014130F8E05F0718F0F1
:10445000C12C28E0D22E7A013B015C01CE010196ED
:104460000E94370389819A81D5DF812F0E94D40A67
:104470004C0163E070E0812F66DF873111F08C31F1
:1044800021F48C149D0450F302C0C12CD12CCE0118
:1044900001960E94370389819A81BCDF9601A301AE
:1044A00060E070E0812F0E94BF0C60E270E0812F1D
:1044B00067DF62E070E0812F46DF84FD14C063E0B7
:1044C00070E0812F40DF811106C081E090E0F501AE
:1044D0009383828311C0CE0101960E9437038981A4
:1044E0009A8198DFE6CF40E162E070E0812F0EDF35
:1044F000CD2859F3C70102C080E090E00F900F90E3
:10450000DF91CF911F91FF90EF90DF90CF90BF9000
:10451000AF909F908F907F906F900895AF92BF92D1
:10452000CF92DF92EF92FF920F931F93CF93DF937F
:104530001F921F92CDB7DEB78C016B015A01FC01AF
:104540008485883058F40E94370C882321F0F801C4
:1045500084850E94B00B88E0F8018487F60182818F
:104560009381A481B5810097A105B10509F458C0D4
:104570008F3F9F4FAF4FBF4F09F452C060E070E0D4
:1045800081E20E94240FF82EF8018487F7E0F817E3
:1045900008F446C0CE0101960E94370389819A81B2
:1045A00039DFA6014E5F5F4F24E030E06CE070E041
:1045B0008F2D0E94AD0CB5018F2D0E94FA0E64E084
:1045C00070E08F2DDDDE0E94132B6B017C01F80162
:1045D00084850E94370C873131F18C3121F1882399
:1045E000F9F00E94132BAB01BC014C195D096E0957
:1045F0007F09F80185859685A0E0B0E084179507CE
:10460000A607B70730F061E070E080E090E0D3D714
:10461000DECFF80184850E94CD0B88E0F801848705
:1046200080E090E002C081E090E00F900F90DF9179
:10463000CF911F910F91FF90EF90DF90CF90BF909F
:10464000AF900895FB0101900020E9F73197AF0189
:10465000461B570BDC01ED91FC910480F581E02DA8
:104660001994FC01EF52FF4F2081222331F0029672
:104670000E94FE3421E0892B09F420E0822F089566
:104680006F927F928F929F92AF92BF92CF92DF9262
:10469000EF92FF920F931F93CF93DF93EC018C0166
:1046A0000E521F4FF8018081811131C08FE198E1D6
:1046B00077D59E0129523F4F7901892BF9F4B3D761
:1046C000F701C080D180E280F380AB01BC014C19BE
:1046D0005D096E097F09349780819181A0E0B0E087
:1046E000481759076A077B0790F032978081FE01CF
:1046F000E80FF11D128284E0782E0AC094D7F701EA
:10470000608371838283938381E0F8018083712CBD
:10471000F8018081813009F05BC08FE198E140D5DC
:10472000682E9E0129523F4F6901882391F17BD762
:10473000F60160837183828393838E010F521F4F32
:104740004E01FCED8F0E911C7E012FECE20EF11C50
:104750006A94F8018081883CC8F4F701A080B18098
:104760008FE198E1FBD4F5018083F701808191818D
:10477000019691838083F80180818F5F8083FE01A1
:10478000E80FF11D12826110E3CF03C0C4010FDCFA
:10479000FACF49D7F6010081118122813381AB0123
:1047A000BC01401B510B620B730BFE01EB52FF4F20
:1047B00080819181A0E0B0E0481759076A077B0724
:1047C00038F034978081C80FD11D1A8277247394F2
:1047D000872DDF91CF911F910F91FF90EF90DF9088
:1047E000CF90BF90AF909F908F907F906F900895E3
:1047F000CF93DF93EC01FC01EE52FF4F1082319614
:10480000718360833296518340830DD7FE01E95254
:10481000FF4F60837183828393831A823897CE011E
:10482000029691838083329610828FE198E11CD5A5
:10483000CE0126DF8823E1F3DF91CF9108954F92D7
:104840005F926F927F928F929F92AF92BF92DF9210
:10485000EF92FF920F931F93CF93DF93CDB7DEB705
:10486000C654D1090FB6F894DEBF0FBECDBF8C0180
:104870007B010E94362E27969FAF8EAF2797CE01E1
:104880008B5B9F4F0E949819672B09F08CC080FDAD
:104890008AC0C8010E941F2E8B3561F5D70114967E
:1048A0008C9114978078806414968C931497119649
:1048B0001C921E9213961C921E921297F8018085EC
:1048C000882371F1C8010E941F2E8B3509F09AC10F
:1048D000D8011A961C92C8010E94362E9A838983A9
:1048E000CE0101960E949819672B09F0BEC180FD88
:1048F000BCC160C08B3789F5D70114968C91149791
:104900008078806214968C93149711961C921E9254
:1049100013961C921E921297F8018085811102C095
:1049200085E0B6C1C8010E941F2E8B3709F06AC10D
:10493000D8011A961C92C8010E94362E25969FAF68
:104940008EAF2597CE018D5B9F4F0E949819672BE4
:1049500009F074C180FD72C197C0C8010E941F2E6A
:10496000873209F472C1823209F46FC1C8010E9412
:104970001F2EB82ECE0101964C01D12C8B2D0E94FA
:104980005113882309F486C1FFE3DF1609F482C1BD
:10499000F8011286D394D401BD924D01C8010E9442
:1049A0001F2EB82EEBCF26968FAD269727969FAD5C
:1049B000279783C3C8010E941F2E8D35A9F1D80106
:1049C0006D917C91C7010E94BF19BC01892B09F42C
:1049D00050C0F801908591509087C80130DF9A83CC
:1049E0008983D80118968C9118978F5F18968C93AD
:1049F000CE0101960E949819672B09F036C180FDFF
:104A000034C1C8010E94362E9A838983CE01019653
:104A10000E949819672B09F028C180FD26C1C801A2
:104A20000E941F2E8D3539F5F801128630C1C8015C
:104A30000E941F2E8C3209F0E5C0F8011286C801D1
:104A40000E94362E25969FAF8EAF2597CE018D5BA7
:104A50009F4F0E949819672B09F0F0C080FDEEC0AF
:104A6000D8016D917C91C7010E94BF195C01892B0F
:104A700089F483E00DC1C8010E941F2E8C3209F019
:104A8000C1C0F80112869BCFC8010E941F2E8D372E
:104A900039F7CACFC8010E941F2E873211F0823227
:104AA000A9F4BE016F5B7F4FC8010E946B1325966E
:104AB0009FAF8EAF2597CE018D5B9F4F0E949819B7
:104AC000672B09F0BBC080FF5BC0B8C0D801169649
:104AD000ED91FC9117972281338184819581938395
:104AE0008283FA83E9831C821B823E832D83821B8F
:104AF000930B98878F83C8010E941F2ED82E88237E
:104B0000E1F18D2D0E945113882389F1F80112865D
:104B10006D2DCE0101960E94A619C8010E941F2E7C
:104B2000D82E0E9451138111F1CF60E0CE01019681
:104B30000E94A6198D819E81892B71F0E981FA81ED
:104B40008B819C812F813885821B930B228133813D
:104B5000820F931F938382838D819E8123969FAFC3
:104B60008EAF2397892B31F483E090E0A0CF82E0D1
:104B700090E09DCF80E090E09ACF81E090E097CFE9
:104B800023962EAD3FAD2397F50184818068848301
:104B900037832683C8010E94362E25969FAF8EAF9D
:104BA0002597CE018D5B9F4F0E949819672B09F0C6
:104BB00045C080FD43C0C8010E941F2E8A3311F5F5
:104BC000D8011A961C921A9718968C9118978150B2
:104BD00018968C93B501C80132DE25969FAF8EAF33
:104BE0002597F80180858F5F8087CE018D5B9F4F71
:104BF0000E949819672B11F580FF06C01FC01E3652
:104C000009F44BC282E044C0C8010E94362E2596AA
:104C10009FAF8EAF2597CE018D5B9F4F0E94981955
:104C2000672B61F480FD0AC0C8010E941F2E8D37DA
:104C300009F0FDCED8011A961C9229C024968FAD9A
:104C4000249725969FAD259738C2BE016F5B7F4F95
:104C5000C8010E946B139A838983CE0101960E943A
:104C60009819672B11F480FF03C089819A8125C2AE
:104C700023962EAD3FAD2397D70114968C911497B0
:104C80008078846014968C9314972D933C9380E0E5
:104C900090E013C2E1E0F0E0EC0FFD1FED0DF11D1F
:104CA00010821981112309F465C0CE011D3211F063
:104CB0001B3211F4029601C00196FC01819190ED26
:104CC000980F9A30D8F3811155C0143709F4ECC10C
:104CD0001B3231F01D3231F010E0FE01319605C07B
:104CE00010E001C011E0FE01329620E030E0A901A1
:104CF000019180ED800F8A30A0F4AAE0B0E00E941C
:104D00005832202F000F330B205331094901330F44
:104D1000AA08BB08A5019401260F371F481F591F79
:104D2000E7CF112309F4C2C1211531054105510511
:104D3000B9F4E0E070E060E090E0D70114968C9167
:104D400014978078866014968C931497EC93119640
:104D50007C93119712966C93129713969C9397CF0E
:104D6000F701848180788760848320833183428344
:104D700053838DCF6AE177E0CE0101960E94EE3435
:104D8000892B09F449C01D3239F01B3251F45E0100
:104D9000B2E0AB0EB11C08C05E01E2E0AE0EB11C89
:104DA00003C0CE0101965C016EE177E0C5010E946F
:104DB000EE34892B89F1D5018C91882309F441C106
:104DC000FD018D9190ED980F9A30D0F38E3241F421
:104DD0009D01F9012F5F3F4F808180538A30C8F3D6
:104DE00080818F7D8534A9F481818D3209F463C17E
:104DF0008B3209F460C13196808180538A3008F08B
:104E000020C19F01F9012F5F3F4F808180538A307D
:104E1000C8F38081811115C11B3251F01D3279F424
:104E20001A81DD24D3945E01B2E0AB0EB11C0BC03D
:104E30001A81D12C5E01E2E0AE0EB11C04C0D12C6F
:104E4000CE0101965C01143709F4DFC01F7D1E34CA
:104E500009F4E0C0193409F48AC000E020E030E031
:104E6000A901F501D5011D915D0180ED810F8A3009
:104E7000E8F42C3CBCEC3B07BCE04B075105A4F428
:104E8000AAE0B0E00E945832212F110F330B2053BB
:104E900031092901330F66087708A3019201260F13
:104EA000371F481F591FDDCF0F5FDBCF1E3241F583
:104EB0005F018FEFA81AB80AF501D5011D915D01B8
:104EC00080ED810F8A30E0F42C3CBCEC3B07BCE069
:104ED0004B0751058CF7AAE0B0E00E945832212F11
:104EE000110F330B205331092901330F660877085E
:104EF000A3019201260F371F481F591F0150DCCF15
:104F000080818F7D002E000C110B8534F1F581819D
:104F10008D3219F43296B1E006C08B3211F0319621
:104F200001C03296B0E080E090E06AE0B62EA19138
:104F300060ED6A0F6A3018F5B89EB001B99E700D29
:104F400011248A2FAA0F990BC097860F971FB801BB
:104F5000680F791F6732710554F3BB2341F0DD20E0
:104F600009F45DC080E090E0A0E0B0E860C0DD2022
:104F700009F459C080E090E0A0E8BFEF58C0BB231F
:104F800031F091958195910902C080E090E0080F81
:104F9000191FCA01B9010E944A3110161106B4F452
:104FA000B12C00FF0CC024E0B29EF0011124E955A1
:104FB000FD4F20813181428153810E9485311595B9
:104FC0000795B3940115110561F719C01195019565
:104FD0001109B12C0115110591F000FF0CC0A4E0DE
:104FE000BA9EF0011124E157FD4F208131814281A9
:104FF00053810E94853115950795B394EBCFDC0161
:10500000CB01DD20A1F0B05812C080E090E0A0E814
:10501000BFE30DC080E090E0A0ECBFE708C080E0F7
:1050200090E0DC0104C080E090E0A0E8BFE7F70179
:10503000248120782860248380839183A283B38392
:1050400026CE1437A1F4D70114968C91149780784A
:10505000856014968C9381E090E0A0E0B0E0F701C9
:1050600080839183A283B38390E0F4E013C016366B
:1050700009F0C5CDD70114968C911497807885607E
:1050800014968C93F701108211821282138281E0B0
:1050900090E0F5E0DF1211C005C081E090E024E06F
:1050A000D2120BC080E009C0E1E044CEE22F732FA2
:1050B000642F952F42CE32969FCECA5BDF4F0FB63C
:1050C000F894DEBF0FBECDBFDF91CF911F910F913E
:1050D000FF90EF90DF90BF90AF909F908F907F9068
:1050E0006F905F904F9008950895CF92DF92EF9266
:1050F000FF920F931F93CF93DF936C017A018B0183
:10510000C0E0D0E0CE15DF0581F0D8016D918D01B2
:10511000D601ED91FC910190F081E02DC601199529
:10512000892B11F02196EECF7E01C701DF91CF913F
:105130001F910F91FF90EF90DF90CF900895FC01A9
:10514000538D448D252F30E0842F90E0821B930BEC
:10515000541710F0CF96089501970895FC01918D92
:10516000828D981761F0828DDF01A80FB11D5D96C9
:105170008C91928D9F5F9F73928F90E008958FEF37
:105180009FEF0895FC01918D828D981731F0828DEB
:10519000E80FF11D858D90E008958FEF9FEF089542
:1051A000FC01918D228D892F90E0805C9F4F821BA6
:1051B00091098F73992708958FE198E1F1DF21E03C
:1051C000892B09F420E0822F08950E94A934EF92E0
:1051D000FF920F931F93CF93DF93EC0181E0888FB1
:1051E0009B8D8C8D981305C0E889F989808185FD98
:1051F00026C0F62E0B8D10E00F5F1F4F0F73112787
:10520000E02E8C8DE8120CC00FB607FCFACFE889AF
:10521000F989808185FFF5CFCE010E94B20AF1CFD6
:105220008B8DFE01E80FF11DE35AFF4FF0829FB70F
:10523000F8940B8FEA89FB89808180620AC09FB74E
:10524000F894EE89FF896083E889F9898081837009
:10525000806480839FBF81E090E0DF91CF911F91B8
:105260000F91FF90EF900895CF93DF93EC01888D1D
:105270008823C9F0EA89FB89808185FD05C0A8895A
:10528000B9898C9186FD0FC00FB607FCF5CF8081E0
:1052900085FFF2CFA889B9898C9185FFEDCFCE012A
:1052A0000E94B20AE7CFDF91CF9108958F929F922B
:1052B000AF92BF92CF92DF92EF92FF920F931F9324
:1052C000CF93DF93CDB7DEB760970FB6F894DEBF0C
:1052D0000FBECDBF7C0190910818992309F4B4C08A
:1052E000933311F008E001C004E05B01CE010196A8
:1052F0000E94370389819A818DD89E012F5F3F4F8D
:105300006901490110E063E070E0812F1CD8F401CD
:1053100081934F018823B9F01F5F0113F4CF10E090
:10532000F60181916F018D3151F0883141F08A5140
:10533000823028F01F5F0113F3CF6BD885C060E186
:1053400070E0812F1DD8C12ED12C83EE93E0019700
:10535000F1F742E860E070E0812F0E9486214FEF74
:1053600062E070E0812F0E948621A114B10411F047
:10537000B50113C080910A0290910B02019681152C
:10538000F0EC9F0710F480E090EC90930B02809378
:105390000A0260910A0270910B02812F0E940F0F86
:1053A00086E0EFEBF2E0DE01199601900D928A950E
:1053B000E1F7F70183818F778C8784818D878581E1
:1053C0008E87A7014E5F5F4F24E030E06CE070E015
:1053D000812F0E94AD0CB501812F0E94FA0E26E0AC
:1053E00030E0AE01475F5F4F66E070E0812F0E94C2
:1053F000AD0C61E070E0812F0E94C02127E02C9D60
:10540000C0012D9D900D11249C012054384E79012E
:10541000F9011182108222E030E0AE01415F5F4F5E
:1054200068E270E0812F0E94C6208F8598899827B6
:1054300089279827F7019383828316821582148225
:105440000E940922812F01C088E060960FB6F8946F
:10545000DEBF0FBECDBFDF91CF911F910F91FF90A7
:10546000EF90DF90CF90BF90AF909F908F90089576
:10547000362F90E0FC01E85BFC4F4491FC01E256C2
:10548000FE4F2491FC01E85AFE4F9491992309F4B0
:105490006CC0442309F455C050E0FA013197E23161
:1054A000F10508F04EC08827E058FF4F8F4F0C944D
:1054B0009932809180008F7707C0809180008F7D26
:1054C00003C080918000877F809380003AC084B5BC
:1054D0008F7702C084B58F7D84BD33C08091B000CA
:1054E0008F7703C08091B0008F7D8093B00029C07A
:1054F000809190008F7707C0809190008F7D03C0CE
:1055000080919000877F809390001BC08091A000C5
:105510008F7707C08091A0008F7D03C08091A0008D
:10552000877F8093A0000DC0809120018F7707C0F6
:10553000809120018F7D03C080912001877F80931F
:105540002001E92FF0E0EE0FFF1FEC5DFE4FA5916B
:10555000B4919FB7F894311104C08C912095282301
:1055600002C0EC912E2B2C939FBF08953FB7F89467
:1055700080910F1890911018A0911118B0911218E5
:1055800026B5A89B05C02F3F19F00196A11DB11D9E
:105590003FBFBA2FA92F982F8827820F911DA11DD9
:1055A000B11DBC01CD0142E0660F771F881F991F16
:1055B0004A95D1F708958F929F92AF92BF92CF9262
:1055C000DF92EF92FF926B017C01D0DF4B015C0117
:1055D000C114D104E104F104E9F0C8DFDC01CB011E
:1055E00088199909AA09BB09883E9340A105B1050C
:1055F00078F321E0C21AD108E108F10888EE880E9C
:1056000083E0981EA11CB11CC114D104E104F10473
:1056100021F7DECFFF90EF90DF90CF90BF90AF905B
:105620009F908F9008952FB7F89460910B18709108
:105630000C1880910D1890910E182FBF08951F928D
:105640000F920FB60F9211242F933F938F939F9336
:10565000AF93BF9380910B1890910C18A0910D18E7
:10566000B0910E1830910A1823E0230F2D3720F443
:105670000196A11DB11D05C026E8230F0296A11DAC
:10568000B11D20930A1880930B1890930C18A093C7
:105690000D18B0930E1880910F1890911018A091CA
:1056A0001118B09112180196A11DB11D80930F1809
:1056B00090931018A0931118B0931218BF91AF9146
:1056C0009F918F913F912F910F900FBE0F901F9040
:1056D0001895CF93DF93EC0188819981009709F0A9
:1056E000CFD7198218821D821C821B821A82DF91F9
:1056F000CF910895EF92FF920F931F93CF93DF9373
:10570000EC017B018A0188819981009729F02A8127
:105710003B8124173507A8F4B8016F5F7F4F0E94C3
:10572000C933009759F0998388831B830A832C819E
:105730003D81232B31F4FC01108203C0CE01C9DF6F
:1057400007C01D830C83B701888199810E94F734BB
:10575000CE01DF91CF911F910F91FF90EF900895AF
:10576000FC01808191818CC7FC011182108213821F
:105770001282158214826115710549F0FB010190B6
:105780000020E9F73197AF01461B570BB3CF0895BF
:105790006115710579F0FB0101900020E9F731975F
:1057A000AF01461B570BDC01ED91FC910280F381A8
:1057B000E02D199480E090E008958F929F92AF922F
:1057C000BF92EF92FF920F931F93CF93DF93CDB7CA
:1057D000DEB7A1970FB6F894DEBF0FBECDBF7C0138
:1057E000FA01CB0119A2223008F42AE08E010F5DE4
:1057F0001F4F822E912CA12CB12CBF01A501940129
:1058000067D6F901CA01015011096A3014F4605DCC
:1058100001C0695CD8016C93232B242B252B69F7DD
:10582000B801C701B5DFA1960FB6F894DEBF0FBE71
:10583000CDBFDF91CF911F910F91FF90EF90BF905F
:10584000AF909F908F9008958F929F92AF92BF924A
:10585000CF92DF92EF92FF920F931F93CF93DF933C
:105860007C01EB016C0182E0C80ED11C4701E5E030
:105870008E0E911C00E010E0F60141916F0150E0A6
:1058800060E070E02AE0CE0198DF5C01E881F981F8
:105890000190F081E02D6EE2CE0119958A0D9B1DDD
:1058A000080F191F8C149D0439F7F701458150E04A
:1058B00060E070E02AE0CE0180DF800F911FDF9171
:1058C000CF911F910F91FF90EF90DF90CF90BF90FD
:1058D000AF909F908F90089563EC75E059CF0F9330
:1058E0001F93CF93DF93EC0153DF8C01CE01F4DFE4
:1058F000800F911FDF91CF911F910F910895DC01CF
:105900008DE393E08D939D9384E0FB0101900D92D4
:105910008A95E1F708951F920F920FB60F92112406
:105920000BB60F922F933F934F935F936F937F9399
:105930008F939F93AF93BF93EF93FF938FE198E182
:105940000E94B20AFF91EF91BF91AF919F918F9109
:105950007F916F915F914F913F912F910F900BBE6F
:105960000F900FBE0F901F9018951F920F920FB6B9
:105970000F9211240BB60F922F938F939F93EF9357
:10598000FF93E0912F18F09130188081E091351845
:10599000F091361882FD12C09081809138188F5F87
:1059A0008F7320913918821751F0E0913818F0E088
:1059B000E15EF74E958F8093381801C08081FF918A
:1059C000EF919F918F912F910F900BBE0F900FBE73
:1059D0000F901F901895DC01ED91FC910280F381EE
:1059E000E02D1994CF92DF92EF92FF926B017C0130
:1059F000E0912F18F091301882E08083C11481EE7D
:105A0000D806E104F104A9F060E079E08DE390E0CC
:105A1000A70196015DD5DA01C9010197A109B10974
:105A2000B695A795979587959C01211580E1380734
:105A3000B0F0E0912F18F0913018108260E874E80F
:105A40008EE190E0A701960143D5DA01C9010197E3
:105A5000A109B109B695A795979587959C01E09105
:105A60002B18F0912C183083E0912D18F0912E18FE
:105A7000208310923718E0913318F091341886E0A3
:105A80008083E0913118F0913218808180618083A9
:105A9000E0913118F0913218808188608083E09124
:105AA0003118F0913218808180688083E09131183C
:105AB000F091321880818F7D8083FF90EF90DF908E
:105AC000CF9008954F925F926F927F928F929F92A4
:105AD000AF92BF92CF92DF92EF92FF920F931F93FC
